{
  "_format": "hh-sol-artifact-1",
  "contractName": "Voting",
  "sourceName": "contracts/Voting.sol",
  "abi": [
    {
      "inputs": [
        {
          "internalType": "address",
          "name": "_voteTokenAddress",
          "type": "address"
        }
      ],
      "stateMutability": "nonpayable",
      "type": "constructor"
    },
    {
      "anonymous": false,
      "inputs": [
        {
          "indexed": false,
          "internalType": "uint256",
          "name": "id",
          "type": "uint256"
        },
        {
          "indexed": false,
          "internalType": "string",
          "name": "name",
          "type": "string"
        }
      ],
      "name": "CandidateRegistered",
      "type": "event"
    },
    {
      "anonymous": false,
      "inputs": [
        {
          "indexed": false,
          "internalType": "uint256",
          "name": "id",
          "type": "uint256"
        },
        {
          "indexed": false,
          "internalType": "string",
          "name": "description",
          "type": "string"
        }
      ],
      "name": "ProposalCreated",
      "type": "event"
    },
    {
      "anonymous": false,
      "inputs": [
        {
          "indexed": false,
          "internalType": "uint256",
          "name": "id",
          "type": "uint256"
        },
        {
          "indexed": false,
          "internalType": "bool",
          "name": "passed",
          "type": "bool"
        }
      ],
      "name": "ProposalFinalized",
      "type": "event"
    },
    {
      "anonymous": false,
      "inputs": [
        {
          "indexed": false,
          "internalType": "uint256",
          "name": "id",
          "type": "uint256"
        },
        {
          "indexed": false,
          "internalType": "address",
          "name": "voter",
          "type": "address"
        },
        {
          "indexed": false,
          "internalType": "bool",
          "name": "support",
          "type": "bool"
        }
      ],
      "name": "ProposalVoted",
      "type": "event"
    },
    {
      "anonymous": false,
      "inputs": [
        {
          "indexed": false,
          "internalType": "address",
          "name": "voter",
          "type": "address"
        },
        {
          "indexed": false,
          "internalType": "uint256",
          "name": "candidateId",
          "type": "uint256"
        }
      ],
      "name": "VoteCasted",
      "type": "event"
    },
    {
      "anonymous": false,
      "inputs": [
        {
          "indexed": false,
          "internalType": "address",
          "name": "voter",
          "type": "address"
        }
      ],
      "name": "VoterRegistered",
      "type": "event"
    },
    {
      "anonymous": false,
      "inputs": [],
      "name": "VotingEnded",
      "type": "event"
    },
    {
      "inputs": [
        {
          "internalType": "uint256",
          "name": "",
          "type": "uint256"
        }
      ],
      "name": "candidates",
      "outputs": [
        {
          "internalType": "uint256",
          "name": "id",
          "type": "uint256"
        },
        {
          "internalType": "string",
          "name": "name",
          "type": "string"
        },
        {
          "internalType": "uint256",
          "name": "voteCount",
          "type": "uint256"
        }
      ],
      "stateMutability": "view",
      "type": "function"
    },
    {
      "inputs": [],
      "name": "candidatesCount",
      "outputs": [
        {
          "internalType": "uint256",
          "name": "",
          "type": "uint256"
        }
      ],
      "stateMutability": "view",
      "type": "function"
    },
    {
      "inputs": [
        {
          "internalType": "string",
          "name": "_description",
          "type": "string"
        }
      ],
      "name": "createProposal",
      "outputs": [],
      "stateMutability": "nonpayable",
      "type": "function"
    },
    {
      "inputs": [],
      "name": "electionOfficial",
      "outputs": [
        {
          "internalType": "address",
          "name": "",
          "type": "address"
        }
      ],
      "stateMutability": "view",
      "type": "function"
    },
    {
      "inputs": [],
      "name": "endVoting",
      "outputs": [],
      "stateMutability": "nonpayable",
      "type": "function"
    },
    {
      "inputs": [
        {
          "internalType": "uint256",
          "name": "_proposalId",
          "type": "uint256"
        }
      ],
      "name": "finalizeProposal",
      "outputs": [],
      "stateMutability": "nonpayable",
      "type": "function"
    },
    {
      "inputs": [],
      "name": "getElectionOfficial",
      "outputs": [
        {
          "internalType": "address",
          "name": "",
          "type": "address"
        }
      ],
      "stateMutability": "view",
      "type": "function"
    },
    {
      "inputs": [
        {
          "internalType": "uint256",
          "name": "_proposalId",
          "type": "uint256"
        }
      ],
      "name": "getProposalStatus",
      "outputs": [
        {
          "internalType": "string",
          "name": "",
          "type": "string"
        }
      ],
      "stateMutability": "view",
      "type": "function"
    },
    {
      "inputs": [
        {
          "internalType": "uint256",
          "name": "_proposalId",
          "type": "uint256"
        }
      ],
      "name": "getProposalVotes",
      "outputs": [
        {
          "internalType": "uint256",
          "name": "yesVotes",
          "type": "uint256"
        },
        {
          "internalType": "uint256",
          "name": "noVotes",
          "type": "uint256"
        }
      ],
      "stateMutability": "view",
      "type": "function"
    },
    {
      "inputs": [
        {
          "internalType": "uint256",
          "name": "_candidateId",
          "type": "uint256"
        }
      ],
      "name": "getResults",
      "outputs": [
        {
          "internalType": "uint256",
          "name": "",
          "type": "uint256"
        }
      ],
      "stateMutability": "view",
      "type": "function"
    },
    {
      "inputs": [
        {
          "internalType": "address",
          "name": "voter",
          "type": "address"
        },
        {
          "internalType": "uint256",
          "name": "proposalId",
          "type": "uint256"
        }
      ],
      "name": "hasVotedOnProposal",
      "outputs": [
        {
          "internalType": "bool",
          "name": "",
          "type": "bool"
        }
      ],
      "stateMutability": "view",
      "type": "function"
    },
    {
      "inputs": [
        {
          "internalType": "uint256",
          "name": "",
          "type": "uint256"
        },
        {
          "internalType": "address",
          "name": "",
          "type": "address"
        }
      ],
      "name": "proposalVoters",
      "outputs": [
        {
          "internalType": "bool",
          "name": "",
          "type": "bool"
        }
      ],
      "stateMutability": "view",
      "type": "function"
    },
    {
      "inputs": [
        {
          "internalType": "uint256",
          "name": "",
          "type": "uint256"
        },
        {
          "internalType": "address",
          "name": "",
          "type": "address"
        }
      ],
      "name": "proposalVotes",
      "outputs": [
        {
          "internalType": "bool",
          "name": "",
          "type": "bool"
        }
      ],
      "stateMutability": "view",
      "type": "function"
    },
    {
      "inputs": [
        {
          "internalType": "uint256",
          "name": "",
          "type": "uint256"
        }
      ],
      "name": "proposals",
      "outputs": [
        {
          "internalType": "uint256",
          "name": "id",
          "type": "uint256"
        },
        {
          "internalType": "string",
          "name": "description",
          "type": "string"
        },
        {
          "internalType": "uint256",
          "name": "voteCountYes",
          "type": "uint256"
        },
        {
          "internalType": "uint256",
          "name": "voteCountNo",
          "type": "uint256"
        },
        {
          "internalType": "bool",
          "name": "executed",
          "type": "bool"
        },
        {
          "internalType": "string",
          "name": "status",
          "type": "string"
        }
      ],
      "stateMutability": "view",
      "type": "function"
    },
    {
      "inputs": [],
      "name": "proposalsCount",
      "outputs": [
        {
          "internalType": "uint256",
          "name": "",
          "type": "uint256"
        }
      ],
      "stateMutability": "view",
      "type": "function"
    },
    {
      "inputs": [
        {
          "internalType": "string",
          "name": "_name",
          "type": "string"
        }
      ],
      "name": "registerCandidate",
      "outputs": [],
      "stateMutability": "nonpayable",
      "type": "function"
    },
    {
      "inputs": [
        {
          "internalType": "address",
          "name": "_voter",
          "type": "address"
        }
      ],
      "name": "registerVoter",
      "outputs": [],
      "stateMutability": "nonpayable",
      "type": "function"
    },
    {
      "inputs": [],
      "name": "startVoting",
      "outputs": [],
      "stateMutability": "nonpayable",
      "type": "function"
    },
    {
      "inputs": [
        {
          "internalType": "uint256",
          "name": "_candidateId",
          "type": "uint256"
        }
      ],
      "name": "vote",
      "outputs": [],
      "stateMutability": "nonpayable",
      "type": "function"
    },
    {
      "inputs": [
        {
          "internalType": "uint256",
          "name": "_proposalId",
          "type": "uint256"
        },
        {
          "internalType": "bool",
          "name": "support",
          "type": "bool"
        }
      ],
      "name": "voteOnProposal",
      "outputs": [],
      "stateMutability": "nonpayable",
      "type": "function"
    },
    {
      "inputs": [],
      "name": "voteToken",
      "outputs": [
        {
          "internalType": "contract IERC20",
          "name": "",
          "type": "address"
        }
      ],
      "stateMutability": "view",
      "type": "function"
    },
    {
      "inputs": [
        {
          "internalType": "address",
          "name": "",
          "type": "address"
        }
      ],
      "name": "voters",
      "outputs": [
        {
          "internalType": "bool",
          "name": "hasVoted",
          "type": "bool"
        },
        {
          "internalType": "uint256",
          "name": "vote",
          "type": "uint256"
        },
        {
          "internalType": "bool",
          "name": "isRegistered",
          "type": "bool"
        }
      ],
      "stateMutability": "view",
      "type": "function"
    },
    {
      "inputs": [],
      "name": "votingEnded",
      "outputs": [
        {
          "internalType": "bool",
          "name": "",
          "type": "bool"
        }
      ],
      "stateMutability": "view",
      "type": "function"
    },
    {
      "inputs": [],
      "name": "votingStarted",
      "outputs": [
        {
          "internalType": "bool",
          "name": "",
          "type": "bool"
        }
      ],
      "stateMutability": "view",
      "type": "function"
    }
  ],
  "bytecode": "0x60806040526000600160146101000a81548160ff0219169083151502179055506000600160156101000a81548160ff02191690831515021790555034801561004657600080fd5b50604051612ea4380380612ea48339818101604052810190610068919061015b565b600160008190555033600160006101000a81548173ffffffffffffffffffffffffffffffffffffffff021916908373ffffffffffffffffffffffffffffffffffffffff16021790555080600260006101000a81548173ffffffffffffffffffffffffffffffffffffffff021916908373ffffffffffffffffffffffffffffffffffffffff16021790555050610188565b600080fd5b600073ffffffffffffffffffffffffffffffffffffffff82169050919050565b6000610128826100fd565b9050919050565b6101388161011d565b811461014357600080fd5b50565b6000815190506101558161012f565b92915050565b600060208284031215610171576101706100f8565b5b600061017f84828501610146565b91505092915050565b612d0d806101976000396000f3fe608060405234801561001057600080fd5b50600436106101585760003560e01c806349c2a1a6116100c35780638e1f6a2c1161007c5780638e1f6a2c146103e15780639d5a0529146104115780639eb88db61461042f578063a3ec138d1461044b578063ad39b7eb1461047d578063c3403ddf1461049b57610158565b806349c2a1a61461030d5780634c447216146103295780635652077c146103595780637d8e1a291461037557806381a60c0d1461039357806383d948b7146103c357610158565b80632d35a8a2116101155780632d35a8a2146102105780632da463851461022e5780633477ee2e1461025e57806338db6dd314610290578063401853b7146102ac57806347c66140146102dc57610158565b80630121b93f1461015d578063013cf08b146101795780630a9f46ad146101ae578063160d66ae146101cc5780631614665c146101ea5780631ec6b60a14610206575b600080fd5b61017760048036038101906101729190611a9e565b6104a5565b005b610193600480360381019061018e9190611a9e565b61081f565b6040516101a596959493929190611b85565b60405180910390f35b6101b6610978565b6040516101c39190611bf4565b60405180910390f35b6101d461097e565b6040516101e19190611c8e565b60405180910390f35b61020460048036038101906101ff9190611cd5565b6109a4565b005b61020e610bfd565b005b610218610d14565b6040516102259190611bf4565b60405180910390f35b61024860048036038101906102439190611d53565b610d1a565b6040516102559190611d93565b60405180910390f35b61027860048036038101906102739190611a9e565b610d82565b60405161028793929190611dae565b60405180910390f35b6102aa60048036038101906102a59190611dec565b610e34565b005b6102c660048036038101906102c19190611a9e565b61103c565b6040516102d39190611e19565b60405180910390f35b6102f660048036038101906102f19190611a9e565b6110e4565b604051610304929190611e3b565b60405180910390f35b61032760048036038101906103229190611f99565b611112565b005b610343600480360381019061033e9190611fe2565b6113f4565b6040516103509190611d93565b60405180910390f35b610373600480360381019061036e9190611a9e565b611423565b005b61037d61157e565b60405161038a9190612031565b60405180910390f35b6103ad60048036038101906103a89190611a9e565b6115a8565b6040516103ba9190611bf4565b60405180910390f35b6103cb611617565b6040516103d89190611d93565b60405180910390f35b6103fb60048036038101906103f69190611fe2565b61162e565b6040516104089190611d93565b60405180910390f35b61041961165d565b6040516104269190611d93565b60405180910390f35b61044960048036038101906104449190611f99565b611674565b005b61046560048036038101906104609190611dec565b611851565b6040516104749392919061204c565b60405180910390f35b610485611895565b6040516104929190612031565b60405180910390f35b6104a36118bb565b005b600160149054906101000a900460ff1680156104ce5750600160159054906101000a900460ff16155b61050d576040517f08c379a0000000000000000000000000000000000000000000000000000000008152600401610504906120cf565b60405180910390fd5b600160009054906101000a900473ffffffffffffffffffffffffffffffffffffffff1673ffffffffffffffffffffffffffffffffffffffff163373ffffffffffffffffffffffffffffffffffffffff160361059d576040517f08c379a00000000000000000000000000000000000000000000000000000000081526004016105949061213b565b60405180910390fd5b600460003373ffffffffffffffffffffffffffffffffffffffff1673ffffffffffffffffffffffffffffffffffffffff16815260200190815260200160002060020160009054906101000a900460ff1661062c576040517f08c379a0000000000000000000000000000000000000000000000000000000008152600401610623906121a7565b60405180910390fd5b600460003373ffffffffffffffffffffffffffffffffffffffff1673ffffffffffffffffffffffffffffffffffffffff16815260200190815260200160002060000160009054906101000a900460ff16156106bc576040517f08c379a00000000000000000000000000000000000000000000000000000000081526004016106b390612213565b60405180910390fd5b6000600360008381526020019081526020016000206000015403610715576040517f08c379a000000000000000000000000000000000000000000000000000000000815260040161070c9061227f565b60405180910390fd5b6001600460003373ffffffffffffffffffffffffffffffffffffffff1673ffffffffffffffffffffffffffffffffffffffff16815260200190815260200160002060000160006101000a81548160ff02191690831515021790555080600460003373ffffffffffffffffffffffffffffffffffffffff1673ffffffffffffffffffffffffffffffffffffffff168152602001908152602001600020600101819055506003600082815260200190815260200160002060020160008154809291906107de906122ce565b91905055507fd0e6c39f2e086dc49f1524b47725526a56945cd1ff661f37976f1725a1e569863382604051610814929190612316565b60405180910390a150565b60056020528060005260406000206000915090508060000154908060010180546108489061236e565b80601f01602080910402602001604051908101604052809291908181526020018280546108749061236e565b80156108c15780601f10610896576101008083540402835291602001916108c1565b820191906000526020600020905b8154815290600101906020018083116108a457829003601f168201915b5050505050908060020154908060030154908060040160009054906101000a900460ff16908060050180546108f59061236e565b80601f01602080910402602001604051908101604052809291908181526020018280546109219061236e565b801561096e5780601f106109435761010080835404028352916020019161096e565b820191906000526020600020905b81548152906001019060200180831161095157829003601f168201915b5050505050905086565b60095481565b600260009054906101000a900473ffffffffffffffffffffffffffffffffffffffff1681565b60006005600084815260200190815260200160002090508060040160009054906101000a900460ff1615610a0d576040517f08c379a0000000000000000000000000000000000000000000000000000000008152600401610a04906123eb565b60405180910390fd5b6006600084815260200190815260200160002060003373ffffffffffffffffffffffffffffffffffffffff1673ffffffffffffffffffffffffffffffffffffffff16815260200190815260200160002060009054906101000a900460ff1615610aab576040517f08c379a0000000000000000000000000000000000000000000000000000000008152600401610aa29061247d565b60405180910390fd5b60016007600085815260200190815260200160002060003373ffffffffffffffffffffffffffffffffffffffff1673ffffffffffffffffffffffffffffffffffffffff16815260200190815260200160002060006101000a81548160ff0219169083151502179055508115610b3957806002016000815480929190610b2f906122ce565b9190505550610b54565b806003016000815480929190610b4e906122ce565b91905055505b60016006600085815260200190815260200160002060003373ffffffffffffffffffffffffffffffffffffffff1673ffffffffffffffffffffffffffffffffffffffff16815260200190815260200160002060006101000a81548160ff0219169083151502179055507f0def80f9a3b4c7a4251442658ccf516bf33ea4acaf31638fc6da8ebdb0f64c72833384604051610bf09392919061249d565b60405180910390a1505050565b600160009054906101000a900473ffffffffffffffffffffffffffffffffffffffff1673ffffffffffffffffffffffffffffffffffffffff163373ffffffffffffffffffffffffffffffffffffffff1614610c8d576040517f08c379a0000000000000000000000000000000000000000000000000000000008152600401610c8490612546565b60405180910390fd5b600160149054906101000a900460ff1615610cdd576040517f08c379a0000000000000000000000000000000000000000000000000000000008152600401610cd4906125b2565b60405180910390fd5b60018060146101000a81548160ff0219169083151502179055506000600160156101000a81548160ff021916908315150217905550565b60085481565b60006007600083815260200190815260200160002060008473ffffffffffffffffffffffffffffffffffffffff1673ffffffffffffffffffffffffffffffffffffffff16815260200190815260200160002060009054906101000a900460ff16905092915050565b6003602052806000526040600020600091509050806000015490806001018054610dab9061236e565b80601f0160208091040260200160405190810160405280929190818152602001828054610dd79061236e565b8015610e245780601f10610df957610100808354040283529160200191610e24565b820191906000526020600020905b815481529060010190602001808311610e0757829003601f168201915b5050505050908060020154905083565b600160009054906101000a900473ffffffffffffffffffffffffffffffffffffffff1673ffffffffffffffffffffffffffffffffffffffff163373ffffffffffffffffffffffffffffffffffffffff1614610ec4576040517f08c379a0000000000000000000000000000000000000000000000000000000008152600401610ebb90612546565b60405180910390fd5b600460008273ffffffffffffffffffffffffffffffffffffffff1673ffffffffffffffffffffffffffffffffffffffff16815260200190815260200160002060020160009054906101000a900460ff1615610f54576040517f08c379a0000000000000000000000000000000000000000000000000000000008152600401610f4b9061261e565b60405180910390fd5b60405180606001604052806000151581526020016000815260200160011515815250600460008373ffffffffffffffffffffffffffffffffffffffff1673ffffffffffffffffffffffffffffffffffffffff16815260200190815260200160002060008201518160000160006101000a81548160ff0219169083151502179055506020820151816001015560408201518160020160006101000a81548160ff0219169083151502179055509050507fb6be2187d059cc2a55fe29e0e503b566e1e0f8c8780096e185429350acffd3dd816040516110319190612031565b60405180910390a150565b606060056000838152602001908152602001600020600501805461105f9061236e565b80601f016020809104026020016040519081016040528092919081815260200182805461108b9061236e565b80156110d85780601f106110ad576101008083540402835291602001916110d8565b820191906000526020600020905b8154815290600101906020018083116110bb57829003601f168201915b50505050509050919050565b6000806000600560008581526020019081526020016000209050806002015481600301549250925050915091565b61111a6119fb565b678ac7230489e80000600260009054906101000a900473ffffffffffffffffffffffffffffffffffffffff1673ffffffffffffffffffffffffffffffffffffffff166370a08231336040518263ffffffff1660e01b815260040161117e9190612031565b602060405180830381865afa15801561119b573d6000803e3d6000fd5b505050506040513d601f19601f820116820180604052508101906111bf9190612653565b1015611200576040517f08c379a00000000000000000000000000000000000000000000000000000000081526004016111f7906126cc565b60405180910390fd5b600260009054906101000a900473ffffffffffffffffffffffffffffffffffffffff1673ffffffffffffffffffffffffffffffffffffffff166323b872dd3330678ac7230489e800006040518463ffffffff1660e01b815260040161126793929190612727565b6020604051808303816000875af1158015611286573d6000803e3d6000fd5b505050506040513d601f19601f820116820180604052508101906112aa9190612773565b50600960008154809291906112be906122ce565b91905055506040518060c00160405280600954815260200182815260200160008152602001600081526020016000151581526020016040518060400160405280600781526020017f50656e64696e67000000000000000000000000000000000000000000000000008152508152506005600060095481526020019081526020016000206000820151816000015560208201518160010190816113609190612942565b50604082015181600201556060820151816003015560808201518160040160006101000a81548160ff02191690831515021790555060a08201518160050190816113aa9190612942565b509050507f9c770c289ab5bf7e57cb1d23c8ceae993aea46eb64847072fd3d78ca60d3e432600954826040516113e1929190612a14565b60405180910390a16113f1611a4a565b50565b60066020528160005260406000206020528060005260406000206000915091509054906101000a900460ff1681565b60006005600083815260200190815260200160002090508060040160009054906101000a900460ff161561148c576040517f08c379a000000000000000000000000000000000000000000000000000000000815260040161148390612a90565b60405180910390fd5b60008160030154826002015411905060018260040160006101000a81548160ff021916908315150217905550806114f8576040518060400160405280600881526020017f52656a656374656400000000000000000000000000000000000000000000000081525061152f565b6040518060400160405280600681526020017f50617373656400000000000000000000000000000000000000000000000000008152505b82600501908161153f9190612942565b507fb5ac567fcf1b069e0235e4f16734625c6cf54c1b40517fd9eb85517f6e1265a78382604051611571929190612ab0565b60405180910390a1505050565b6000600160009054906101000a900473ffffffffffffffffffffffffffffffffffffffff16905090565b6000600160159054906101000a900460ff166115f9576040517f08c379a00000000000000000000000000000000000000000000000000000000081526004016115f090612b25565b60405180910390fd5b60036000838152602001908152602001600020600201549050919050565b6000600160149054906101000a900460ff16905090565b60076020528160005260406000206020528060005260406000206000915091509054906101000a900460ff1681565b6000600160159054906101000a900460ff16905090565b600160009054906101000a900473ffffffffffffffffffffffffffffffffffffffff1673ffffffffffffffffffffffffffffffffffffffff163373ffffffffffffffffffffffffffffffffffffffff1614611704576040517f08c379a00000000000000000000000000000000000000000000000000000000081526004016116fb90612546565b60405180910390fd5b6000600190505b600854811161179a5781805190602001206003600083815260200190815260200160002060010160405161173f9190612be8565b604051809103902003611787576040517f08c379a000000000000000000000000000000000000000000000000000000000815260040161177e90612c4b565b60405180910390fd5b8080611792906122ce565b91505061170b565b50600860008154809291906117ae906122ce565b91905055506040518060600160405280600854815260200182815260200160008152506003600060085481526020019081526020016000206000820151816000015560208201518160010190816118059190612942565b50604082015181600201559050507f96b6e1d9af8279de0ae4d01600bcae708bdb292c4a8f8f150aff92f5caf56a4260085482604051611846929190612a14565b60405180910390a150565b60046020528060005260406000206000915090508060000160009054906101000a900460ff16908060010154908060020160009054906101000a900460ff16905083565b600160009054906101000a900473ffffffffffffffffffffffffffffffffffffffff1681565b600160009054906101000a900473ffffffffffffffffffffffffffffffffffffffff1673ffffffffffffffffffffffffffffffffffffffff163373ffffffffffffffffffffffffffffffffffffffff161461194b576040517f08c379a000000000000000000000000000000000000000000000000000000000815260040161194290612546565b60405180910390fd5b600160149054906101000a900460ff1680156119745750600160159054906101000a900460ff16155b6119b3576040517f08c379a00000000000000000000000000000000000000000000000000000000081526004016119aa906120cf565b60405180910390fd5b60018060156101000a81548160ff0219169083151502179055507f7a19ed057db79e3c2fa0b97a54b43bef4fce74b31bb6c01af514b9a18a7f70ab60405160405180910390a1565b600260005403611a40576040517f08c379a0000000000000000000000000000000000000000000000000000000008152600401611a3790612cb7565b60405180910390fd5b6002600081905550565b6001600081905550565b6000604051905090565b600080fd5b600080fd5b6000819050919050565b611a7b81611a68565b8114611a8657600080fd5b50565b600081359050611a9881611a72565b92915050565b600060208284031215611ab457611ab3611a5e565b5b6000611ac284828501611a89565b91505092915050565b611ad481611a68565b82525050565b600081519050919050565b600082825260208201905092915050565b60005b83811015611b14578082015181840152602081019050611af9565b60008484015250505050565b6000601f19601f8301169050919050565b6000611b3c82611ada565b611b468185611ae5565b9350611b56818560208601611af6565b611b5f81611b20565b840191505092915050565b60008115159050919050565b611b7f81611b6a565b82525050565b600060c082019050611b9a6000830189611acb565b8181036020830152611bac8188611b31565b9050611bbb6040830187611acb565b611bc86060830186611acb565b611bd56080830185611b76565b81810360a0830152611be78184611b31565b9050979650505050505050565b6000602082019050611c096000830184611acb565b92915050565b600073ffffffffffffffffffffffffffffffffffffffff82169050919050565b6000819050919050565b6000611c54611c4f611c4a84611c0f565b611c2f565b611c0f565b9050919050565b6000611c6682611c39565b9050919050565b6000611c7882611c5b565b9050919050565b611c8881611c6d565b82525050565b6000602082019050611ca36000830184611c7f565b92915050565b611cb281611b6a565b8114611cbd57600080fd5b50565b600081359050611ccf81611ca9565b92915050565b60008060408385031215611cec57611ceb611a5e565b5b6000611cfa85828601611a89565b9250506020611d0b85828601611cc0565b9150509250929050565b6000611d2082611c0f565b9050919050565b611d3081611d15565b8114611d3b57600080fd5b50565b600081359050611d4d81611d27565b92915050565b60008060408385031215611d6a57611d69611a5e565b5b6000611d7885828601611d3e565b9250506020611d8985828601611a89565b9150509250929050565b6000602082019050611da86000830184611b76565b92915050565b6000606082019050611dc36000830186611acb565b8181036020830152611dd58185611b31565b9050611de46040830184611acb565b949350505050565b600060208284031215611e0257611e01611a5e565b5b6000611e1084828501611d3e565b91505092915050565b60006020820190508181036000830152611e338184611b31565b905092915050565b6000604082019050611e506000830185611acb565b611e5d6020830184611acb565b9392505050565b600080fd5b600080fd5b7f4e487b7100000000000000000000000000000000000000000000000000000000600052604160045260246000fd5b611ea682611b20565b810181811067ffffffffffffffff82111715611ec557611ec4611e6e565b5b80604052505050565b6000611ed8611a54565b9050611ee48282611e9d565b919050565b600067ffffffffffffffff821115611f0457611f03611e6e565b5b611f0d82611b20565b9050602081019050919050565b82818337600083830152505050565b6000611f3c611f3784611ee9565b611ece565b905082815260208101848484011115611f5857611f57611e69565b5b611f63848285611f1a565b509392505050565b600082601f830112611f8057611f7f611e64565b5b8135611f90848260208601611f29565b91505092915050565b600060208284031215611faf57611fae611a5e565b5b600082013567ffffffffffffffff811115611fcd57611fcc611a63565b5b611fd984828501611f6b565b91505092915050565b60008060408385031215611ff957611ff8611a5e565b5b600061200785828601611a89565b925050602061201885828601611d3e565b9150509250929050565b61202b81611d15565b82525050565b60006020820190506120466000830184612022565b92915050565b60006060820190506120616000830186611b76565b61206e6020830185611acb565b61207b6040830184611b76565b949350505050565b7f566f74696e67206973206e6f7420616374697665000000000000000000000000600082015250565b60006120b9601483611ae5565b91506120c482612083565b602082019050919050565b600060208201905081810360008301526120e8816120ac565b9050919050565b7f4f6666696369616c2063616e6e6f7420766f7465000000000000000000000000600082015250565b6000612125601483611ae5565b9150612130826120ef565b602082019050919050565b6000602082019050818103600083015261215481612118565b9050919050565b7f4e6f74207265676973746572656420746f20766f746500000000000000000000600082015250565b6000612191601683611ae5565b915061219c8261215b565b602082019050919050565b600060208201905081810360008301526121c081612184565b9050919050565b7f596f75206861766520616c726561647920766f74656400000000000000000000600082015250565b60006121fd601683611ae5565b9150612208826121c7565b602082019050919050565b6000602082019050818103600083015261222c816121f0565b9050919050565b7f496e76616c69642063616e646964617465000000000000000000000000000000600082015250565b6000612269601183611ae5565b915061227482612233565b602082019050919050565b600060208201905081810360008301526122988161225c565b9050919050565b7f4e487b7100000000000000000000000000000000000000000000000000000000600052601160045260246000fd5b60006122d982611a68565b91507fffffffffffffffffffffffffffffffffffffffffffffffffffffffffffffffff820361230b5761230a61229f565b5b600182019050919050565b600060408201905061232b6000830185612022565b6123386020830184611acb565b9392505050565b7f4e487b7100000000000000000000000000000000000000000000000000000000600052602260045260246000fd5b6000600282049050600182168061238657607f821691505b6020821081036123995761239861233f565b5b50919050565b7f50726f706f73616c20616c72656164792066696e616c697a6564000000000000600082015250565b60006123d5601a83611ae5565b91506123e08261239f565b602082019050919050565b60006020820190508181036000830152612404816123c8565b9050919050565b7f596f75206861766520616c726561647920766f746564206f6e2074686973207060008201527f726f706f73616c00000000000000000000000000000000000000000000000000602082015250565b6000612467602783611ae5565b91506124728261240b565b604082019050919050565b600060208201905081810360008301526124968161245a565b9050919050565b60006060820190506124b26000830186611acb565b6124bf6020830185612022565b6124cc6040830184611b76565b949350505050565b7f4f6e6c792074686520656c656374696f6e206f6666696369616c2063616e206360008201527f616c6c2074686973000000000000000000000000000000000000000000000000602082015250565b6000612530602883611ae5565b915061253b826124d4565b604082019050919050565b6000602082019050818103600083015261255f81612523565b9050919050565b7f566f74696e6720616c7265616479207374617274656400000000000000000000600082015250565b600061259c601683611ae5565b91506125a782612566565b602082019050919050565b600060208201905081810360008301526125cb8161258f565b9050919050565b7f566f74657220697320616c726561647920726567697374657265640000000000600082015250565b6000612608601b83611ae5565b9150612613826125d2565b602082019050919050565b60006020820190508181036000830152612637816125fb565b9050919050565b60008151905061264d81611a72565b92915050565b60006020828403121561266957612668611a5e565b5b60006126778482850161263e565b91505092915050565b7f4e6f7420656e6f7567682056544b20746f2070726f706f736500000000000000600082015250565b60006126b6601983611ae5565b91506126c182612680565b602082019050919050565b600060208201905081810360008301526126e5816126a9565b9050919050565b6000819050919050565b600061271161270c612707846126ec565b611c2f565b611a68565b9050919050565b612721816126f6565b82525050565b600060608201905061273c6000830186612022565b6127496020830185612022565b6127566040830184612718565b949350505050565b60008151905061276d81611ca9565b92915050565b60006020828403121561278957612788611a5e565b5b60006127978482850161275e565b91505092915050565b60008190508160005260206000209050919050565b60006020601f8301049050919050565b600082821b905092915050565b6000600883026128027fffffffffffffffffffffffffffffffffffffffffffffffffffffffffffffffff826127c5565b61280c86836127c5565b95508019841693508086168417925050509392505050565b600061283f61283a61283584611a68565b611c2f565b611a68565b9050919050565b6000819050919050565b61285983612824565b61286d61286582612846565b8484546127d2565b825550505050565b600090565b612882612875565b61288d818484612850565b505050565b5b818110156128b1576128a660008261287a565b600181019050612893565b5050565b601f8211156128f6576128c7816127a0565b6128d0846127b5565b810160208510156128df578190505b6128f36128eb856127b5565b830182612892565b50505b505050565b600082821c905092915050565b6000612919600019846008026128fb565b1980831691505092915050565b60006129328383612908565b9150826002028217905092915050565b61294b82611ada565b67ffffffffffffffff81111561296457612963611e6e565b5b61296e825461236e565b6129798282856128b5565b600060209050601f8311600181146129ac576000841561299a578287015190505b6129a48582612926565b865550612a0c565b601f1984166129ba866127a0565b60005b828110156129e2578489015182556001820191506020850194506020810190506129bd565b868310156129ff57848901516129fb601f891682612908565b8355505b6001600288020188555050505b505050505050565b6000604082019050612a296000830185611acb565b8181036020830152612a3b8184611b31565b90509392505050565b7f416c72656164792066696e616c697a6564000000000000000000000000000000600082015250565b6000612a7a601183611ae5565b9150612a8582612a44565b602082019050919050565b60006020820190508181036000830152612aa981612a6d565b9050919050565b6000604082019050612ac56000830185611acb565b612ad26020830184611b76565b9392505050565b7f566f74696e6720686173206e6f7420656e646564000000000000000000000000600082015250565b6000612b0f601483611ae5565b9150612b1a82612ad9565b602082019050919050565b60006020820190508181036000830152612b3e81612b02565b9050919050565b600081905092915050565b60008190508160005260206000209050919050565b60008154612b728161236e565b612b7c8186612b45565b94506001821660008114612b975760018114612bac57612bdf565b60ff1983168652811515820286019350612bdf565b612bb585612b50565b60005b83811015612bd757815481890152600182019150602081019050612bb8565b838801955050505b50505092915050565b6000612bf48284612b65565b915081905092915050565b7f43616e64696461746520616c7265616479207265676973746572656400000000600082015250565b6000612c35601c83611ae5565b9150612c4082612bff565b602082019050919050565b60006020820190508181036000830152612c6481612c28565b9050919050565b7f5265656e7472616e637947756172643a207265656e7472616e742063616c6c00600082015250565b6000612ca1601f83611ae5565b9150612cac82612c6b565b602082019050919050565b60006020820190508181036000830152612cd081612c94565b905091905056fea2646970667358221220c5ccefebc2efea42e5f47d5b2dea48b37a02036d8db67f1390d591c77796ccff64736f6c634300081c0033",
  "linkReferences": {},
  "deployedLinkReferences": {}
}